{
  "_format": "hh-sol-artifact-1",
  "contractName": "AIGC",
  "sourceName": "contracts/AIGC.sol",
  "abi": [
    {
      "inputs": [],
      "stateMutability": "nonpayable",
      "type": "constructor"
    },
    {
      "inputs": [
        {
          "internalType": "uint256",
          "name": "numerator",
          "type": "uint256"
        },
        {
          "internalType": "uint256",
          "name": "denominator",
          "type": "uint256"
        }
      ],
      "name": "ERC2981InvalidDefaultRoyalty",
      "type": "error"
    },
    {
      "inputs": [
        {
          "internalType": "address",
          "name": "receiver",
          "type": "address"
        }
      ],
      "name": "ERC2981InvalidDefaultRoyaltyReceiver",
      "type": "error"
    },
    {
      "inputs": [
        {
          "internalType": "uint256",
          "name": "tokenId",
          "type": "uint256"
        },
        {
          "internalType": "uint256",
          "name": "numerator",
          "type": "uint256"
        },
        {
          "internalType": "uint256",
          "name": "denominator",
          "type": "uint256"
        }
      ],
      "name": "ERC2981InvalidTokenRoyalty",
      "type": "error"
    },
    {
      "inputs": [
        {
          "internalType": "uint256",
          "name": "tokenId",
          "type": "uint256"
        },
        {
          "internalType": "address",
          "name": "receiver",
          "type": "address"
        }
      ],
      "name": "ERC2981InvalidTokenRoyaltyReceiver",
      "type": "error"
    },
    {
      "inputs": [
        {
          "internalType": "address",
          "name": "sender",
          "type": "address"
        },
        {
          "internalType": "uint256",
          "name": "tokenId",
          "type": "uint256"
        },
        {
          "internalType": "address",
          "name": "owner",
          "type": "address"
        }
      ],
      "name": "ERC721IncorrectOwner",
      "type": "error"
    },
    {
      "inputs": [
        {
          "internalType": "address",
          "name": "operator",
          "type": "address"
        },
        {
          "internalType": "uint256",
          "name": "tokenId",
          "type": "uint256"
        }
      ],
      "name": "ERC721InsufficientApproval",
      "type": "error"
    },
    {
      "inputs": [
        {
          "internalType": "address",
          "name": "approver",
          "type": "address"
        }
      ],
      "name": "ERC721InvalidApprover",
      "type": "error"
    },
    {
      "inputs": [
        {
          "internalType": "address",
          "name": "operator",
          "type": "address"
        }
      ],
      "name": "ERC721InvalidOperator",
      "type": "error"
    },
    {
      "inputs": [
        {
          "internalType": "address",
          "name": "owner",
          "type": "address"
        }
      ],
      "name": "ERC721InvalidOwner",
      "type": "error"
    },
    {
      "inputs": [
        {
          "internalType": "address",
          "name": "receiver",
          "type": "address"
        }
      ],
      "name": "ERC721InvalidReceiver",
      "type": "error"
    },
    {
      "inputs": [
        {
          "internalType": "address",
          "name": "sender",
          "type": "address"
        }
      ],
      "name": "ERC721InvalidSender",
      "type": "error"
    },
    {
      "inputs": [
        {
          "internalType": "uint256",
          "name": "tokenId",
          "type": "uint256"
        }
      ],
      "name": "ERC721NonexistentToken",
      "type": "error"
    },
    {
      "inputs": [],
      "name": "InvalidInitialization",
      "type": "error"
    },
    {
      "inputs": [],
      "name": "NotInitializing",
      "type": "error"
    },
    {
      "anonymous": false,
      "inputs": [
        {
          "indexed": true,
          "internalType": "address",
          "name": "owner",
          "type": "address"
        },
        {
          "indexed": true,
          "internalType": "address",
          "name": "approved",
          "type": "address"
        },
        {
          "indexed": true,
          "internalType": "uint256",
          "name": "tokenId",
          "type": "uint256"
        }
      ],
      "name": "Approval",
      "type": "event"
    },
    {
      "anonymous": false,
      "inputs": [
        {
          "indexed": true,
          "internalType": "address",
          "name": "owner",
          "type": "address"
        },
        {
          "indexed": true,
          "internalType": "address",
          "name": "operator",
          "type": "address"
        },
        {
          "indexed": false,
          "internalType": "bool",
          "name": "approved",
          "type": "bool"
        }
      ],
      "name": "ApprovalForAll",
      "type": "event"
    },
    {
      "anonymous": false,
      "inputs": [
        {
          "indexed": false,
          "internalType": "uint256",
          "name": "_fromTokenId",
          "type": "uint256"
        },
        {
          "indexed": false,
          "internalType": "uint256",
          "name": "_toTokenId",
          "type": "uint256"
        }
      ],
      "name": "BatchMetadataUpdate",
      "type": "event"
    },
    {
      "anonymous": false,
      "inputs": [
        {
          "indexed": false,
          "internalType": "uint64",
          "name": "version",
          "type": "uint64"
        }
      ],
      "name": "Initialized",
      "type": "event"
    },
    {
      "anonymous": false,
      "inputs": [
        {
          "indexed": false,
          "internalType": "uint256",
          "name": "_tokenId",
          "type": "uint256"
        }
      ],
      "name": "MetadataUpdate",
      "type": "event"
    },
    {
      "anonymous": false,
      "inputs": [
        {
          "indexed": true,
          "internalType": "address",
          "name": "from",
          "type": "address"
        },
        {
          "indexed": true,
          "internalType": "address",
          "name": "to",
          "type": "address"
        },
        {
          "indexed": true,
          "internalType": "uint256",
          "name": "tokenId",
          "type": "uint256"
        }
      ],
      "name": "Transfer",
      "type": "event"
    },
    {
      "inputs": [],
      "name": "aiModelVm",
      "outputs": [
        {
          "internalType": "bytes32",
          "name": "",
          "type": "bytes32"
        }
      ],
      "stateMutability": "view",
      "type": "function"
    },
    {
      "inputs": [
        {
          "internalType": "address",
          "name": "to",
          "type": "address"
        },
        {
          "internalType": "uint256",
          "name": "tokenId",
          "type": "uint256"
        }
      ],
      "name": "approve",
      "outputs": [],
      "stateMutability": "nonpayable",
      "type": "function"
    },
    {
      "inputs": [
        {
          "internalType": "address",
          "name": "owner",
          "type": "address"
        }
      ],
      "name": "balanceOf",
      "outputs": [
        {
          "internalType": "uint256",
          "name": "",
          "type": "uint256"
        }
      ],
      "stateMutability": "view",
      "type": "function"
    },
    {
      "inputs": [
        {
          "internalType": "uint256",
          "name": "_tokenId",
          "type": "uint256"
        }
      ],
      "name": "buy",
      "outputs": [],
      "stateMutability": "payable",
      "type": "function"
    },
    {
      "inputs": [],
      "name": "costToken",
      "outputs": [
        {
          "internalType": "uint256",
          "name": "",
          "type": "uint256"
        }
      ],
      "stateMutability": "view",
      "type": "function"
    },
    {
      "inputs": [
        {
          "internalType": "uint256",
          "name": "tokenId",
          "type": "uint256"
        }
      ],
      "name": "getApproved",
      "outputs": [
        {
          "internalType": "address",
          "name": "",
          "type": "address"
        }
      ],
      "stateMutability": "view",
      "type": "function"
    },
    {
      "inputs": [],
      "name": "getModelIndex",
      "outputs": [
        {
          "internalType": "uint256",
          "name": "",
          "type": "uint256"
        }
      ],
      "stateMutability": "view",
      "type": "function"
    },
    {
      "inputs": [
        {
          "internalType": "uint256[]",
          "name": "vals",
          "type": "uint256[]"
        },
        {
          "internalType": "string[]",
          "name": "vals2",
          "type": "string[]"
        },
        {
          "internalType": "address[]",
          "name": "vals3",
          "type": "address[]"
        },
        {
          "internalType": "bytes32",
          "name": "_aiModelVm",
          "type": "bytes32"
        },
        {
          "internalType": "uint96",
          "name": "_royalty",
          "type": "uint96"
        }
      ],
      "name": "initialize",
      "outputs": [],
      "stateMutability": "nonpayable",
      "type": "function"
    },
    {
      "inputs": [],
      "name": "ipOrgAddr",
      "outputs": [
        {
          "internalType": "address",
          "name": "",
          "type": "address"
        }
      ],
      "stateMutability": "view",
      "type": "function"
    },
    {
      "inputs": [
        {
          "internalType": "address",
          "name": "owner",
          "type": "address"
        },
        {
          "internalType": "address",
          "name": "operator",
          "type": "address"
        }
      ],
      "name": "isApprovedForAll",
      "outputs": [
        {
          "internalType": "bool",
          "name": "",
          "type": "bool"
        }
      ],
      "stateMutability": "view",
      "type": "function"
    },
    {
      "inputs": [
        {
          "internalType": "string",
          "name": "_tokenURI",
          "type": "string"
        },
        {
          "internalType": "bytes32",
          "name": "_promptHash",
          "type": "bytes32"
        },
        {
          "internalType": "bytes32",
          "name": "_opmlFinalState",
          "type": "bytes32"
        },
        {
          "internalType": "string",
          "name": "_ipAssetMediaUrl",
          "type": "string"
        }
      ],
      "name": "mint",
      "outputs": [],
      "stateMutability": "nonpayable",
      "type": "function"
    },
    {
      "inputs": [],
      "name": "modelIndex",
      "outputs": [
        {
          "internalType": "uint256",
          "name": "",
          "type": "uint256"
        }
      ],
      "stateMutability": "view",
      "type": "function"
    },
    {
      "inputs": [],
      "name": "modelName",
      "outputs": [
        {
          "internalType": "string",
          "name": "",
          "type": "string"
        }
      ],
      "stateMutability": "view",
      "type": "function"
    },
    {
      "inputs": [],
      "name": "name",
      "outputs": [
        {
          "internalType": "string",
          "name": "",
          "type": "string"
        }
      ],
      "stateMutability": "view",
      "type": "function"
    },
    {
      "inputs": [],
      "name": "opmlLib",
      "outputs": [
        {
          "internalType": "contract IOpmlLib",
          "name": "",
          "type": "address"
        }
      ],
      "stateMutability": "view",
      "type": "function"
    },
    {
      "inputs": [
        {
          "internalType": "uint256",
          "name": "tokenId",
          "type": "uint256"
        }
      ],
      "name": "ownerOf",
      "outputs": [
        {
          "internalType": "address",
          "name": "",
          "type": "address"
        }
      ],
      "stateMutability": "view",
      "type": "function"
    },
    {
      "inputs": [
        {
          "internalType": "uint256",
          "name": "tokenId",
          "type": "uint256"
        },
        {
          "internalType": "uint256",
          "name": "salePrice",
          "type": "uint256"
        }
      ],
      "name": "royaltyInfo",
      "outputs": [
        {
          "internalType": "address",
          "name": "",
          "type": "address"
        },
        {
          "internalType": "uint256",
          "name": "",
          "type": "uint256"
        }
      ],
      "stateMutability": "view",
      "type": "function"
    },
    {
      "inputs": [
        {
          "internalType": "address",
          "name": "from",
          "type": "address"
        },
        {
          "internalType": "address",
          "name": "to",
          "type": "address"
        },
        {
          "internalType": "uint256",
          "name": "tokenId",
          "type": "uint256"
        }
      ],
      "name": "safeTransferFrom",
      "outputs": [],
      "stateMutability": "nonpayable",
      "type": "function"
    },
    {
      "inputs": [
        {
          "internalType": "address",
          "name": "from",
          "type": "address"
        },
        {
          "internalType": "address",
          "name": "to",
          "type": "address"
        },
        {
          "internalType": "uint256",
          "name": "tokenId",
          "type": "uint256"
        },
        {
          "internalType": "bytes",
          "name": "data",
          "type": "bytes"
        }
      ],
      "name": "safeTransferFrom",
      "outputs": [],
      "stateMutability": "nonpayable",
      "type": "function"
    },
    {
      "inputs": [
        {
          "internalType": "address",
          "name": "operator",
          "type": "address"
        },
        {
          "internalType": "bool",
          "name": "approved",
          "type": "bool"
        }
      ],
      "name": "setApprovalForAll",
      "outputs": [],
      "stateMutability": "nonpayable",
      "type": "function"
    },
    {
      "inputs": [
        {
          "internalType": "bytes4",
          "name": "interfaceId",
          "type": "bytes4"
        }
      ],
      "name": "supportsInterface",
      "outputs": [
        {
          "internalType": "bool",
          "name": "",
          "type": "bool"
        }
      ],
      "stateMutability": "view",
      "type": "function"
    },
    {
      "inputs": [],
      "name": "symbol",
      "outputs": [
        {
          "internalType": "string",
          "name": "",
          "type": "string"
        }
      ],
      "stateMutability": "view",
      "type": "function"
    },
    {
      "inputs": [],
      "name": "token",
      "outputs": [
        {
          "internalType": "contract IERC20",
          "name": "",
          "type": "address"
        }
      ],
      "stateMutability": "view",
      "type": "function"
    },
    {
      "inputs": [],
      "name": "tokenId",
      "outputs": [
        {
          "internalType": "uint256",
          "name": "",
          "type": "uint256"
        }
      ],
      "stateMutability": "view",
      "type": "function"
    },
    {
      "inputs": [
        {
          "internalType": "uint256",
          "name": "_tokenId",
          "type": "uint256"
        }
      ],
      "name": "tokenURI",
      "outputs": [
        {
          "internalType": "string",
          "name": "",
          "type": "string"
        }
      ],
      "stateMutability": "view",
      "type": "function"
    },
    {
      "inputs": [
        {
          "internalType": "address",
          "name": "from",
          "type": "address"
        },
        {
          "internalType": "address",
          "name": "to",
          "type": "address"
        },
        {
          "internalType": "uint256",
          "name": "tokenId",
          "type": "uint256"
        }
      ],
      "name": "transferFrom",
      "outputs": [],
      "stateMutability": "nonpayable",
      "type": "function"
    },
    {
      "inputs": [
        {
          "internalType": "uint256",
          "name": "_tokenId",
          "type": "uint256"
        }
      ],
      "name": "verify",
      "outputs": [
        {
          "internalType": "bool",
          "name": "",
          "type": "bool"
        }
      ],
      "stateMutability": "nonpayable",
      "type": "function"
    }
  ],
  "bytecode": "0x60806040523480156200001157600080fd5b506200001c62000022565b620000d6565b7ff0c57e16840df040f15088dc2f81fe391c3923bec73e23a9662efc9c229c6a00805468010000000000000000900460ff1615620000735760405163f92ee8a960e01b815260040160405180910390fd5b80546001600160401b0390811614620000d35780546001600160401b0319166001600160401b0390811782556040519081527fc7f505b2f371ae2175ee4913f4499e1f2633a7b5936321eed1cdaeb6115181d29060200160405180910390a15b50565b61296b80620000e66000396000f3fe6080604052600436106101ac5760003560e01c80636a2787bb116100ec578063b8076a6b1161008a578063d96a094a11610064578063d96a094a146104b0578063df218bd1146104c3578063e985e9c5146104d9578063fc0c546a1461054157600080fd5b8063b8076a6b14610450578063b88d4fde14610470578063c87b56dd1461049057600080fd5b80638753367f116100c65780638753367f146103e657806395d89b4114610406578063a22cb4651461041b578063a81675c71461043b57600080fd5b80636a2787bb1461039057806370a08231146103b057806374a349d2146103d057600080fd5b806323b872dd1161015957806331c54e251161013357806331c54e251461031b57806342842e0e1461033b578063608193c31461035b5780636352211e1461037057600080fd5b806323b872dd1461029c5780632a55205a146102bc5780632f03012e146102fb57600080fd5b8063095ea7b31161018a578063095ea7b314610240578063129865131461026257806317d70f7c1461028657600080fd5b806301ffc9a7146101b157806306fdde03146101e6578063081812fc14610208575b600080fd5b3480156101bd57600080fd5b506101d16101cc366004611ff0565b610561565b60405190151581526020015b60405180910390f35b3480156101f257600080fd5b506101fb610572565b6040516101dd919061205d565b34801561021457600080fd5b50610228610223366004612070565b610628565b6040516001600160a01b0390911681526020016101dd565b34801561024c57600080fd5b5061026061025b3660046120a5565b610670565b005b34801561026e57600080fd5b5061027860045481565b6040519081526020016101dd565b34801561029257600080fd5b5061027860015481565b3480156102a857600080fd5b506102606102b73660046120cf565b61067f565b3480156102c857600080fd5b506102dc6102d736600461210b565b61070f565b604080516001600160a01b0390931683526020830191909152016101dd565b34801561030757600080fd5b50600554610228906001600160a01b031681565b34801561032757600080fd5b506102606103363660046121ec565b61080c565b34801561034757600080fd5b506102606103563660046120cf565b610b50565b34801561036757600080fd5b50600054610278565b34801561037c57600080fd5b5061022861038b366004612070565b610b70565b34801561039c57600080fd5b506102606103ab366004612395565b610b7b565b3480156103bc57600080fd5b506102786103cb36600461248d565b610e51565b3480156103dc57600080fd5b5061027860025481565b3480156103f257600080fd5b506101d1610401366004612070565b610ed8565b34801561041257600080fd5b506101fb610f75565b34801561042757600080fd5b506102606104363660046124b6565b610fc6565b34801561044757600080fd5b506101fb610fd1565b34801561045c57600080fd5b50600654610228906001600160a01b031681565b34801561047c57600080fd5b5061026061048b3660046124ed565b61105f565b34801561049c57600080fd5b506101fb6104ab366004612070565b611076565b6102606104be366004612070565b611081565b3480156104cf57600080fd5b5061027860005481565b3480156104e557600080fd5b506101d16104f436600461255d565b6001600160a01b0391821660009081527f80bb2b638cc20bc4d0a60d66940f3ab4a00c1d7b313497ca82fb0b4ab00793056020908152604080832093909416825291909152205460ff1690565b34801561054d57600080fd5b50600354610228906001600160a01b031681565b600061056c8261116b565b92915050565b7f80bb2b638cc20bc4d0a60d66940f3ab4a00c1d7b313497ca82fb0b4ab007930080546060919081906105a490612590565b80601f01602080910402602001604051908101604052809291908181526020018280546105d090612590565b801561061d5780601f106105f25761010080835404028352916020019161061d565b820191906000526020600020905b81548152906001019060200180831161060057829003601f168201915b505050505091505090565b600061063382611176565b5060008281527f80bb2b638cc20bc4d0a60d66940f3ab4a00c1d7b313497ca82fb0b4ab007930460205260409020546001600160a01b031661056c565b61067b8282336111ce565b5050565b6001600160a01b0382166106ae57604051633250574960e11b8152600060048201526024015b60405180910390fd5b60006106bb8383336111db565b9050836001600160a01b0316816001600160a01b031614610709576040516364283d7b60e01b81526001600160a01b03808616600483015260248201849052821660448201526064016106a5565b50505050565b60008281527fdaedc9ab023613a7caf35e703657e986ccfad7e3eb0af93a2853f8d65dd86b01602090815260408083208151808301909252546001600160a01b038116808352600160a01b9091046bffffffffffffffffffffffff169282019290925282917fdaedc9ab023613a7caf35e703657e986ccfad7e3eb0af93a2853f8d65dd86b0091906107cf57506040805180820190915281546001600160a01b0381168252600160a01b90046bffffffffffffffffffffffff1660208201525b6020810151600090612710906107f3906bffffffffffffffffffffffff16886125e0565b6107fd91906125f7565b91519791965090945050505050565b6003546002546040517f23b872dd00000000000000000000000000000000000000000000000000000000815233600482015230602482015260448101919091526001600160a01b03909116906323b872dd906064016020604051808303816000875af1158015610880573d6000803e3d6000fd5b505050506040513d601f19601f820116820180604052508101906108a49190612619565b506108b133600154611329565b6108bd60015485611343565b600554600480546040517f1aafb2be0000000000000000000000000000000000000000000000000000000081529182015260248101859052604481018490526001600160a01b0390911690631aafb2be906064016020604051808303816000875af1158015610930573d6000803e3d6000fd5b505050506040513d601f19601f820116820180604052508101906109549190612636565b6008600060015481526020019081526020016000208190555060006040518060a00160405280306001600160a01b03168152602001600060ff168152602001600780546109a090612590565b80601f01602080910402602001604051908101604052809291908181526020018280546109cc90612590565b8015610a195780601f106109ee57610100808354040283529160200191610a19565b820191906000526020600020905b8154815290600101906020018083116109fc57829003601f168201915b5050509183525050600060208083018290526040928301869052600654835183815291820190935292935091829173537fccce413236a4e5f4f385e2edc861aec622f09163dc0ec402916001600160a01b0316908690859081610a8c565b6060815260200190600190039081610a775790505b506040805160008082526020820190925290610ab8565b6060815260200190600190039081610aa35790505b506040518663ffffffff1660e01b8152600401610ad99594939291906126a1565b60408051808303816000875af1158015610af7573d6000803e3d6000fd5b505050506040513d601f19601f82011682018060405250810190610b1b919061274c565b600180546000908152600960205260408120849055815493955091935090610b4283612770565b919050555050505050505050565b610b6b8383836040518060200160405280600081525061105f565b505050565b600061056c82611176565b7ff0c57e16840df040f15088dc2f81fe391c3923bec73e23a9662efc9c229c6a00805468010000000000000000810460ff16159067ffffffffffffffff16600081158015610bc65750825b905060008267ffffffffffffffff166001148015610be35750303b155b905081158015610bf1575080155b15610c28576040517ff92ee8a900000000000000000000000000000000000000000000000000000000815260040160405180910390fd5b845467ffffffffffffffff191660011785558315610c5c57845468ff00000000000000001916680100000000000000001785555b60008a600081518110610c7157610c71612789565b6020026020010151905060008b600181518110610c9057610c90612789565b6020026020010151905060008b600081518110610caf57610caf612789565b6020026020010151905060008c600181518110610cce57610cce612789565b6020026020010151905060008c600081518110610ced57610ced612789565b6020026020010151905060008d600181518110610d0c57610d0c612789565b6020026020010151905060008e600281518110610d2b57610d2b612789565b60200260200101519050610d3f85856113b6565b610d476113c8565b610d4f6113c8565b82600360006101000a8154816001600160a01b0302191690836001600160a01b0316021790555086600081905550856002819055508d60048190555081600560006101000a8154816001600160a01b0302191690836001600160a01b0316021790555080600660006101000a8154816001600160a01b0302191690836001600160a01b031602179055508460079081610de891906127ed565b50610df3838e6113d2565b505050505050508315610e4557845468ff000000000000000019168555604051600181527fc7f505b2f371ae2175ee4913f4499e1f2633a7b5936321eed1cdaeb6115181d29060200160405180910390a15b50505050505050505050565b60007f80bb2b638cc20bc4d0a60d66940f3ab4a00c1d7b313497ca82fb0b4ab00793006001600160a01b038316610eb7576040517f89c62b64000000000000000000000000000000000000000000000000000000008152600060048201526024016106a5565b6001600160a01b039092166000908152600390920160205250604090205490565b6005546000828152600860205260408082205490517f33727c4d00000000000000000000000000000000000000000000000000000000815291926001600160a01b0316916333727c4d91610f329160040190815260200190565b6020604051808303816000875af1158015610f51573d6000803e3d6000fd5b505050506040513d601f19601f8201168201806040525081019061056c9190612619565b7f80bb2b638cc20bc4d0a60d66940f3ab4a00c1d7b313497ca82fb0b4ab007930180546060917f80bb2b638cc20bc4d0a60d66940f3ab4a00c1d7b313497ca82fb0b4ab0079300916105a490612590565b61067b3383836114d6565b60078054610fde90612590565b80601f016020809104026020016040519081016040528092919081815260200182805461100a90612590565b80156110575780601f1061102c57610100808354040283529160200191611057565b820191906000526020600020905b81548152906001019060200180831161103a57829003601f168201915b505050505081565b61106a84848461067f565b610709848484846115b2565b606061056c826116db565b3466038d7ea4c68000146110fd5760405162461bcd60e51b815260206004820152602760248201527f4e6f7420656e6f75676820657468657220746f206275792c206e65656420302e60448201527f303031206574680000000000000000000000000000000000000000000000000060648201526084016106a5565b3061110782610b70565b6001600160a01b03161461115d5760405162461bcd60e51b815260206004820152600c60248201527f4e6f7420666f722073616c65000000000000000000000000000000000000000060448201526064016106a5565b611168303383611810565b50565b600061056c826118c0565b60008181527f80bb2b638cc20bc4d0a60d66940f3ab4a00c1d7b313497ca82fb0b4ab007930260205260408120546001600160a01b03168061056c57604051637e27328960e01b8152600481018490526024016106a5565b610b6b83838360016118fe565b60008281527f80bb2b638cc20bc4d0a60d66940f3ab4a00c1d7b313497ca82fb0b4ab007930260205260408120547f80bb2b638cc20bc4d0a60d66940f3ab4a00c1d7b313497ca82fb0b4ab0079300906001600160a01b039081169084161561124957611249818587611a8a565b6001600160a01b03811615611289576112666000866000806118fe565b6001600160a01b0381166000908152600383016020526040902080546000190190555b6001600160a01b038616156112ba576001600160a01b03861660009081526003830160205260409020805460010190555b6000858152600283016020526040808220805473ffffffffffffffffffffffffffffffffffffffff19166001600160a01b038a811691821790925591518893918516917fddf252ad1be2c89b69c2b068fc378daa952ba7f163c4a11628f55a4df523b3ef91a495945050505050565b61067b828260405180602001604052806000815250611b07565b60008281527f0542a41881ee128a365a727b282c86fa859579490b9bb45aab8503648c8e79006020819052604090912061137d83826127ed565b506040518381527ff8e1a15aba9398e019f0b49df1a4fde98ee17ae345cb5f6b5e2c27f5033e8ce79060200160405180910390a1505050565b6113be611b1e565b61067b8282611b85565b6113d0611b1e565b565b7fdaedc9ab023613a7caf35e703657e986ccfad7e3eb0af93a2853f8d65dd86b006127106bffffffffffffffffffffffff8316811015611455576040517f6f483d090000000000000000000000000000000000000000000000000000000081526bffffffffffffffffffffffff84166004820152602481018290526044016106a5565b6001600160a01b038416611498576040517fb6d9900a000000000000000000000000000000000000000000000000000000008152600060048201526024016106a5565b50604080518082019091526001600160a01b039093168084526bffffffffffffffffffffffff9092166020909301839052600160a01b909202179055565b7f80bb2b638cc20bc4d0a60d66940f3ab4a00c1d7b313497ca82fb0b4ab00793006001600160a01b038316611542576040517f5b08ba180000000000000000000000000000000000000000000000000000000081526001600160a01b03841660048201526024016106a5565b6001600160a01b038481166000818152600584016020908152604080832094881680845294825291829020805460ff191687151590811790915591519182527f17307eab39ab6107e8899845ad3d59bd9653f200f220920489ca2b5937696c31910160405180910390a350505050565b6001600160a01b0383163b1561070957604051630a85bd0160e11b81526001600160a01b0384169063150b7a02906115f49033908890879087906004016128ad565b6020604051808303816000875af192505050801561162f575060408051601f3d908101601f1916820190925261162c918101906128e9565b60015b611698573d80801561165d576040519150601f19603f3d011682016040523d82523d6000602084013e611662565b606091505b50805160000361169057604051633250574960e11b81526001600160a01b03851660048201526024016106a5565b805181602001fd5b6001600160e01b03198116630a85bd0160e11b146116d457604051633250574960e11b81526001600160a01b03851660048201526024016106a5565b5050505050565b60607f0542a41881ee128a365a727b282c86fa859579490b9bb45aab8503648c8e790061170783611176565b506000838152602082905260408120805461172190612590565b80601f016020809104026020016040519081016040528092919081815260200182805461174d90612590565b801561179a5780601f1061176f5761010080835404028352916020019161179a565b820191906000526020600020905b81548152906001019060200180831161177d57829003601f168201915b5050505050905060006117b860408051602081019091526000815290565b905080516000036117cb57509392505050565b8151156117fe5780826040516020016117e5929190612906565b6040516020818303038152906040529350505050919050565b61180785611bc8565b95945050505050565b6001600160a01b03821661183a57604051633250574960e11b8152600060048201526024016106a5565b6000611848838360006111db565b90506001600160a01b03811661187457604051637e27328960e01b8152600481018390526024016106a5565b836001600160a01b0316816001600160a01b031614610709576040516364283d7b60e01b81526001600160a01b03808616600483015260248201849052821660448201526064016106a5565b60006001600160e01b031982167f4906490600000000000000000000000000000000000000000000000000000000148061056c575061056c82611c3d565b7f80bb2b638cc20bc4d0a60d66940f3ab4a00c1d7b313497ca82fb0b4ab0079300818061193357506001600160a01b03831615155b15611a4c57600061194385611176565b90506001600160a01b0384161580159061196f5750836001600160a01b0316816001600160a01b031614155b80156119c057506001600160a01b0380821660009081527f80bb2b638cc20bc4d0a60d66940f3ab4a00c1d7b313497ca82fb0b4ab0079305602090815260408083209388168352929052205460ff16155b15611a02576040517fa9fbf51f0000000000000000000000000000000000000000000000000000000081526001600160a01b03851660048201526024016106a5565b8215611a4a5784866001600160a01b0316826001600160a01b03167f8c5be1e5ebec7d5bd14f71427d1e84f3dd0314c0f7b2291e5b200ac8c7c3b92560405160405180910390a45b505b6000938452600401602052505060409020805473ffffffffffffffffffffffffffffffffffffffff19166001600160a01b0392909216919091179055565b611a95838383611caf565b610b6b576001600160a01b038316611ac357604051637e27328960e01b8152600481018290526024016106a5565b6040517f177e802f0000000000000000000000000000000000000000000000000000000081526001600160a01b0383166004820152602481018290526044016106a5565b611b118383611d73565b610b6b60008484846115b2565b7ff0c57e16840df040f15088dc2f81fe391c3923bec73e23a9662efc9c229c6a005468010000000000000000900460ff166113d0576040517fd7e6bcf800000000000000000000000000000000000000000000000000000000815260040160405180910390fd5b611b8d611b1e565b7f80bb2b638cc20bc4d0a60d66940f3ab4a00c1d7b313497ca82fb0b4ab007930080611bb984826127ed565b506001810161070983826127ed565b6060611bd382611176565b506000611beb60408051602081019091526000815290565b90506000815111611c0b5760405180602001604052806000815250611c36565b80611c1584611df1565b604051602001611c26929190612906565b6040516020818303038152906040525b9392505050565b60006001600160e01b031982167f80ac58cd000000000000000000000000000000000000000000000000000000001480611ca057506001600160e01b031982167f5b5e139f00000000000000000000000000000000000000000000000000000000145b8061056c575061056c82611e91565b60006001600160a01b03831615801590611d6b5750826001600160a01b0316846001600160a01b03161480611d2857506001600160a01b0380851660009081527f80bb2b638cc20bc4d0a60d66940f3ab4a00c1d7b313497ca82fb0b4ab0079305602090815260408083209387168352929052205460ff165b80611d6b575060008281527f80bb2b638cc20bc4d0a60d66940f3ab4a00c1d7b313497ca82fb0b4ab007930460205260409020546001600160a01b038481169116145b949350505050565b6001600160a01b038216611d9d57604051633250574960e11b8152600060048201526024016106a5565b6000611dab838360006111db565b90506001600160a01b03811615610b6b576040517f73c6ac6e000000000000000000000000000000000000000000000000000000008152600060048201526024016106a5565b60606000611dfe83611ef8565b600101905060008167ffffffffffffffff811115611e1e57611e1e61212d565b6040519080825280601f01601f191660200182016040528015611e48576020820181803683370190505b5090508181016020015b600019017f3031323334353637383961626364656600000000000000000000000000000000600a86061a8153600a8504945084611e5257509392505050565b60006001600160e01b031982167f2a55205a00000000000000000000000000000000000000000000000000000000148061056c57507f01ffc9a7000000000000000000000000000000000000000000000000000000006001600160e01b031983161461056c565b6000807a184f03e93ff9f4daa797ed6e38ed64bf6a1f0100000000000000008310611f41577a184f03e93ff9f4daa797ed6e38ed64bf6a1f010000000000000000830492506040015b6d04ee2d6d415b85acef81000000008310611f6d576d04ee2d6d415b85acef8100000000830492506020015b662386f26fc100008310611f8b57662386f26fc10000830492506010015b6305f5e1008310611fa3576305f5e100830492506008015b6127108310611fb757612710830492506004015b60648310611fc9576064830492506002015b600a831061056c5760010192915050565b6001600160e01b03198116811461116857600080fd5b60006020828403121561200257600080fd5b8135611c3681611fda565b60005b83811015612028578181015183820152602001612010565b50506000910152565b6000815180845261204981602086016020860161200d565b601f01601f19169290920160200192915050565b602081526000611c366020830184612031565b60006020828403121561208257600080fd5b5035919050565b80356001600160a01b03811681146120a057600080fd5b919050565b600080604083850312156120b857600080fd5b6120c183612089565b946020939093013593505050565b6000806000606084860312156120e457600080fd5b6120ed84612089565b92506120fb60208501612089565b9150604084013590509250925092565b6000806040838503121561211e57600080fd5b50508035926020909101359150565b634e487b7160e01b600052604160045260246000fd5b604051601f8201601f1916810167ffffffffffffffff8111828210171561216c5761216c61212d565b604052919050565b600067ffffffffffffffff83111561218e5761218e61212d565b6121a1601f8401601f1916602001612143565b90508281528383830111156121b557600080fd5b828260208301376000602084830101529392505050565b600082601f8301126121dd57600080fd5b611c3683833560208501612174565b6000806000806080858703121561220257600080fd5b843567ffffffffffffffff8082111561221a57600080fd5b612226888389016121cc565b95506020870135945060408701359350606087013591508082111561224a57600080fd5b50612257878288016121cc565b91505092959194509250565b600067ffffffffffffffff82111561227d5761227d61212d565b5060051b60200190565b600082601f83011261229857600080fd5b813560206122ad6122a883612263565b612143565b82815260059290921b840181019181810190868411156122cc57600080fd5b8286015b8481101561230c57803567ffffffffffffffff8111156122f05760008081fd5b6122fe8986838b01016121cc565b8452509183019183016122d0565b509695505050505050565b600082601f83011261232857600080fd5b813560206123386122a883612263565b82815260059290921b8401810191818101908684111561235757600080fd5b8286015b8481101561230c5761236c81612089565b835291830191830161235b565b80356bffffffffffffffffffffffff811681146120a057600080fd5b600080600080600060a086880312156123ad57600080fd5b853567ffffffffffffffff808211156123c557600080fd5b818801915088601f8301126123d957600080fd5b813560206123e96122a883612263565b82815260059290921b8401810191818101908c84111561240857600080fd5b948201945b838610156124265785358252948201949082019061240d565b9950508901359250508082111561243c57600080fd5b61244889838a01612287565b9550604088013591508082111561245e57600080fd5b5061246b88828901612317565b9350506060860135915061248160808701612379565b90509295509295909350565b60006020828403121561249f57600080fd5b611c3682612089565b801515811461116857600080fd5b600080604083850312156124c957600080fd5b6124d283612089565b915060208301356124e2816124a8565b809150509250929050565b6000806000806080858703121561250357600080fd5b61250c85612089565b935061251a60208601612089565b925060408501359150606085013567ffffffffffffffff81111561253d57600080fd5b8501601f8101871361254e57600080fd5b61225787823560208401612174565b6000806040838503121561257057600080fd5b61257983612089565b915061258760208401612089565b90509250929050565b600181811c908216806125a457607f821691505b6020821081036125c457634e487b7160e01b600052602260045260246000fd5b50919050565b634e487b7160e01b600052601160045260246000fd5b808202811582820484141761056c5761056c6125ca565b60008261261457634e487b7160e01b600052601260045260246000fd5b500490565b60006020828403121561262b57600080fd5b8151611c36816124a8565b60006020828403121561264857600080fd5b5051919050565b6000815180845260208085019450848260051b860182860160005b85811015612694578383038952612682838351612031565b9885019892509084019060010161266a565b5090979650505050505050565b60006001600160a01b03808816835260a060208401528087511660a08401525060ff60208701511660c0830152604086015160a060e08401526126e8610140840182612031565b905060608701516101008401526080870151609f19848303016101208501526127118282612031565b915050856040840152828103606084015261272c818661264f565b90508281036080840152612740818561264f565b98975050505050505050565b6000806040838503121561275f57600080fd5b505080516020909101519092909150565b600060018201612782576127826125ca565b5060010190565b634e487b7160e01b600052603260045260246000fd5b601f821115610b6b57600081815260208120601f850160051c810160208610156127c65750805b601f850160051c820191505b818110156127e5578281556001016127d2565b505050505050565b815167ffffffffffffffff8111156128075761280761212d565b61281b816128158454612590565b8461279f565b602080601f83116001811461285057600084156128385750858301515b600019600386901b1c1916600185901b1785556127e5565b600085815260208120601f198616915b8281101561287f57888601518255948401946001909101908401612860565b508582101561289d5787850151600019600388901b60f8161c191681555b5050505050600190811b01905550565b60006001600160a01b038087168352808616602084015250836040830152608060608301526128df6080830184612031565b9695505050505050565b6000602082840312156128fb57600080fd5b8151611c3681611fda565b6000835161291881846020880161200d565b83519083019061292c81836020880161200d565b0194935050505056fea2646970667358221220caea3f6172f9ad0ddad777eb78d1c85fdefbb785f244674afc25541b345f7e5a64736f6c63430008140033",
  "linkReferences": {},
  "deployedLinkReferences": {}
}