{
  "_format": "hh-sol-artifact-1",
  "contractName": "AIGC_Factory",
  "sourceName": "contracts/AIGC_Factory.sol",
  "abi": [
    {
      "inputs": [
        {
          "internalType": "address",
          "name": "_aigcContractImpl",
          "type": "address"
        }
      ],
      "stateMutability": "nonpayable",
      "type": "constructor"
    },
    {
      "inputs": [],
      "name": "ERC1167FailedCreateClone",
      "type": "error"
    },
    {
      "anonymous": false,
      "inputs": [
        {
          "indexed": false,
          "internalType": "address",
          "name": "aigcAddress",
          "type": "address"
        },
        {
          "indexed": false,
          "internalType": "address",
          "name": "aigtAddress",
          "type": "address"
        }
      ],
      "name": "AIGC_Created",
      "type": "event"
    },
    {
      "inputs": [],
      "name": "aigcContractImpl",
      "outputs": [
        {
          "internalType": "address",
          "name": "",
          "type": "address"
        }
      ],
      "stateMutability": "view",
      "type": "function"
    },
    {
      "inputs": [
        {
          "internalType": "string",
          "name": "_modelName",
          "type": "string"
        },
        {
          "internalType": "string",
          "name": "_modelSymbol",
          "type": "string"
        },
        {
          "internalType": "uint256",
          "name": "_tokenPrice",
          "type": "uint256"
        },
        {
          "internalType": "uint256",
          "name": "_costToken",
          "type": "uint256"
        },
        {
          "internalType": "bytes32",
          "name": "_aiModelVm",
          "type": "bytes32"
        },
        {
          "internalType": "uint256",
          "name": "_ownerReservePercent",
          "type": "uint256"
        },
        {
          "internalType": "uint96",
          "name": "_royalty",
          "type": "uint96"
        }
      ],
      "name": "createAIGC",
      "outputs": [
        {
          "internalType": "uint256",
          "name": "",
          "type": "uint256"
        }
      ],
      "stateMutability": "nonpayable",
      "type": "function"
    },
    {
      "inputs": [
        {
          "internalType": "uint256",
          "name": "",
          "type": "uint256"
        }
      ],
      "name": "deployedAIGCs",
      "outputs": [
        {
          "internalType": "address",
          "name": "",
          "type": "address"
        }
      ],
      "stateMutability": "view",
      "type": "function"
    },
    {
      "inputs": [
        {
          "internalType": "uint256",
          "name": "",
          "type": "uint256"
        }
      ],
      "name": "deployedAIGTs",
      "outputs": [
        {
          "internalType": "address",
          "name": "",
          "type": "address"
        }
      ],
      "stateMutability": "view",
      "type": "function"
    },
    {
      "inputs": [
        {
          "internalType": "uint256",
          "name": "_modelIndex",
          "type": "uint256"
        }
      ],
      "name": "getAIGC",
      "outputs": [
        {
          "internalType": "address",
          "name": "",
          "type": "address"
        }
      ],
      "stateMutability": "view",
      "type": "function"
    },
    {
      "inputs": [
        {
          "internalType": "uint256",
          "name": "_modelIndex",
          "type": "uint256"
        }
      ],
      "name": "getAIGT",
      "outputs": [
        {
          "internalType": "address",
          "name": "",
          "type": "address"
        }
      ],
      "stateMutability": "view",
      "type": "function"
    },
    {
      "inputs": [],
      "name": "modelIndexCurrent",
      "outputs": [
        {
          "internalType": "uint256",
          "name": "",
          "type": "uint256"
        }
      ],
      "stateMutability": "view",
      "type": "function"
    },
    {
      "inputs": [
        {
          "internalType": "uint256",
          "name": "",
          "type": "uint256"
        }
      ],
      "name": "modelIndexToIpOrgAddr",
      "outputs": [
        {
          "internalType": "address",
          "name": "",
          "type": "address"
        }
      ],
      "stateMutability": "view",
      "type": "function"
    }
  ],
  "bytecode": "0x608060405234801561001057600080fd5b50604051611f70380380611f7083398101604081905261002f916100b8565b600380546001600160a01b039092166001600160a01b03199283161790556001805480820182557fb10e2d527612073b26eecdfd717e6a320cf44b4afac2b0732d9fcbe2b7fa0cf6018054831690556002805491820181556000527f405787fa12a823e0f2b7631cc41b3ba8828b3321ca811111fa75cd3aa3bb5ace01805490911690556100e8565b6000602082840312156100ca57600080fd5b81516001600160a01b03811681146100e157600080fd5b9392505050565b611e79806100f76000396000f3fe60806040523480156200001157600080fd5b5060043610620000935760003560e01c80634238b53711620000625780634238b53714620001285780634a7432f7146200013f57806364b213d11462000156578063953c592f146200016d57600080fd5b80630f3a0e3a14620000985780633656104914620000cc578063369390e314620000e55780633a7dda9c1462000111575b600080fd5b620000af620000a9366004620007f5565b62000181565b6040516001600160a01b0390911681526020015b60405180910390f35b620000d660005481565b604051908152602001620000c3565b620000af620000f6366004620007f5565b6004602052600090815260409020546001600160a01b031681565b620000d662000122366004620008ba565b620001ac565b620000af62000139366004620007f5565b620006a4565b620000af62000150366004620007f5565b620006d7565b620000af62000167366004620007f5565b620006ef565b600354620000af906001600160a01b031681565b600281815481106200019257600080fd5b6000918252602090912001546001600160a01b0316905081565b600080548180620001bd8362000972565b9091555050604080516001808252818301909252600091816020015b6060815260200190600190039081620001d95790505090506040518060400160405280600581526020017f496d616765000000000000000000000000000000000000000000000000000000815250816000815181106200023d576200023d6200099a565b60209081029190910101526000805460035473537fccce413236a4e5f4f385e2edc861aec622f0916398e8e6ea9162000282916001600160a01b039091169062000700565b8c8c866040518563ffffffff1660e01b8152600401620002a6949392919062000a51565b6020604051808303816000875af1158015620002c6573d6000803e3d6000fd5b505050506040513d601f19601f82011682018060405250810190620002ec919062000aaa565b60008054815260046020526040808220805473ffffffffffffffffffffffffffffffffffffffff19166001600160a01b0385161790558154905192935090918c908c908c9033906103e8908c906200034490620007e7565b62000356979695949392919062000adc565b604051809103906000f08015801562000373573d6000803e3d6000fd5b5060008054600354929350909162000397916001600160a01b03909116906200075f565b604080516002808252606082018352929350600092909160208301908036833701905050905060005481600081518110620003d657620003d66200099a565b6020026020010181815250508981600181518110620003f957620003f96200099a565b602090810291909101015260408051600280825260608201909252600091816020015b60608152602001906001900390816200041c5790505090508d816000815181106200044b576200044b6200099a565b60200260200101819052508c816001815181106200046d576200046d6200099a565b6020908102919091010152604080516003808252608082019092526000918160200160208202803683370190505090508481600081518110620004b457620004b46200099a565b60200260200101906001600160a01b031690816001600160a01b03168152505073febfde43561bc74e4f982cdeb40a29966708e03581600181518110620004ff57620004ff6200099a565b60200260200101906001600160a01b031690816001600160a01b03168152505085816002815181106200053657620005366200099a565b60200260200101906001600160a01b031690816001600160a01b031681525050836001600160a01b0316636a2787bb8484848f8e6040518663ffffffff1660e01b81526004016200058c95949392919062000b3b565b600060405180830381600087803b158015620005a757600080fd5b505af1158015620005bc573d6000803e3d6000fd5b50506001805480820182557fb10e2d527612073b26eecdfd717e6a320cf44b4afac2b0732d9fcbe2b7fa0cf60180546001600160a01b0389811673ffffffffffffffffffffffffffffffffffffffff1992831681179093556002805494850181556000527f405787fa12a823e0f2b7631cc41b3ba8828b3321ca811111fa75cd3aa3bb5ace9093018054938b1693909116831790556040805191825260208201929092527f89b4e42ad48b530e844746cbc0c0a63533ef6016579c4a268bd61f57afb7b0ae935001905060405180910390a150506000549d9c50505050505050505050505050565b600060028281548110620006bc57620006bc6200099a565b6000918252602090912001546001600160a01b031692915050565b600060018281548110620006bc57620006bc6200099a565b600181815481106200019257600080fd5b6040513060388201526f5af43d82803e903d91602b57fd5bf3ff602482015260148101839052733d602d80600a3d3981f3363d3d373d3d3d363d738152605881018290526037600c820120607882015260556043909101205b92915050565b6000763d602d80600a3d3981f3363d3d373d3d3d363d730000008360601b60e81c176000526e5af43d82803e903d91602b57fd5bf38360781b1760205281603760096000f590506001600160a01b03811662000759576040517fc2f868f400000000000000000000000000000000000000000000000000000000815260040160405180910390fd5b6112458062000bff83390190565b6000602082840312156200080857600080fd5b5035919050565b634e487b7160e01b600052604160045260246000fd5b600082601f8301126200083757600080fd5b813567ffffffffffffffff808211156200085557620008556200080f565b604051601f8301601f19908116603f011681019082821181831017156200088057620008806200080f565b816040528381528660208588010111156200089a57600080fd5b836020870160208301376000602085830101528094505050505092915050565b600080600080600080600060e0888a031215620008d657600080fd5b873567ffffffffffffffff80821115620008ef57600080fd5b620008fd8b838c0162000825565b985060208a01359150808211156200091457600080fd5b50620009238a828b0162000825565b96505060408801359450606088013593506080880135925060a0880135915060c08801356bffffffffffffffffffffffff811681146200096257600080fd5b8091505092959891949750929550565b6000600182016200099357634e487b7160e01b600052601160045260246000fd5b5060010190565b634e487b7160e01b600052603260045260246000fd5b6000815180845260005b81811015620009d857602081850181015186830182015201620009ba565b506000602082860101526020601f19601f83011685010191505092915050565b600081518084526020808501808196508360051b8101915082860160005b8581101562000a4457828403895262000a31848351620009b0565b9885019893509084019060010162000a16565b5091979650505050505050565b6001600160a01b038516815260806020820152600062000a756080830186620009b0565b828103604084015262000a898186620009b0565b9050828103606084015262000a9f8185620009f8565b979650505050505050565b60006020828403121562000abd57600080fd5b81516001600160a01b038116811462000ad557600080fd5b9392505050565b87815260e06020820152600062000af760e0830189620009b0565b828103604084015262000b0b8189620009b0565b9150508560608301526001600160a01b03851660808301528360a08301528260c083015298975050505050505050565b60a0808252865190820181905260009060209060c0840190828a01845b8281101562000b765781518452928401929084019060010162000b58565b5050508381038285015262000b8c8189620009f8565b8481036040860152875180825283890192509083019060005b8181101562000bcc5783516001600160a01b03168352928401929184019160010162000ba5565b5050606085018790526bffffffffffffffffffffffff86166080860152925062000bf4915050565b969550505050505056fe60806040523480156200001157600080fd5b50604051620012453803806200124583398101604081905262000034916200035c565b8286866003620000458382620004a0565b506004620000548282620004a0565b5050506001600160a01b0381166200008757604051631e4fbdf760e01b8152600060048201526024015b60405180910390fd5b6200009281620000d4565b50600687905560078490556008829055620000c7836064620000b5848662000582565b620000c19190620005a2565b62000126565b50505050505050620005db565b600580546001600160a01b038381166001600160a01b0319831681179093556040519116919082907f8be0079c531659141344cd1fd0a4f28419497f9722a3daafe3b4186f6b6457e090600090a35050565b6001600160a01b038216620001525760405163ec442f0560e01b8152600060048201526024016200007e565b620001606000838362000164565b5050565b6001600160a01b03831662000193578060026000828254620001879190620005c5565b90915550620002079050565b6001600160a01b03831660009081526020819052604090205481811015620001e85760405163391434e360e21b81526001600160a01b038516600482015260248101829052604481018390526064016200007e565b6001600160a01b03841660009081526020819052604090209082900390555b6001600160a01b038216620002255760028054829003905562000244565b6001600160a01b03821660009081526020819052604090208054820190555b816001600160a01b0316836001600160a01b03167fddf252ad1be2c89b69c2b068fc378daa952ba7f163c4a11628f55a4df523b3ef836040516200028a91815260200190565b60405180910390a3505050565b634e487b7160e01b600052604160045260246000fd5b600082601f830112620002bf57600080fd5b81516001600160401b0380821115620002dc57620002dc62000297565b604051601f8301601f19908116603f0116810190828211818310171562000307576200030762000297565b816040528381526020925086838588010111156200032457600080fd5b600091505b8382101562000348578582018301518183018401529082019062000329565b600093810190920192909252949350505050565b600080600080600080600060e0888a0312156200037857600080fd5b875160208901519097506001600160401b03808211156200039857600080fd5b620003a68b838c01620002ad565b975060408a0151915080821115620003bd57600080fd5b50620003cc8a828b01620002ad565b60608a015160808b0151919750955090506001600160a01b0381168114620003f357600080fd5b8093505060a0880151915060c0880151905092959891949750929550565b600181811c908216806200042657607f821691505b6020821081036200044757634e487b7160e01b600052602260045260246000fd5b50919050565b601f8211156200049b57600081815260208120601f850160051c81016020861015620004765750805b601f850160051c820191505b81811015620004975782815560010162000482565b5050505b505050565b81516001600160401b03811115620004bc57620004bc62000297565b620004d481620004cd845462000411565b846200044d565b602080601f8311600181146200050c5760008415620004f35750858301515b600019600386901b1c1916600185901b17855562000497565b600085815260208120601f198616915b828110156200053d578886015182559484019460019091019084016200051c565b50858210156200055c5787850151600019600388901b60f8161c191681555b5050505050600190811b01905550565b634e487b7160e01b600052601160045260246000fd5b80820281158282048414176200059c576200059c6200056c565b92915050565b600082620005c057634e487b7160e01b600052601260045260246000fd5b500490565b808201808211156200059c576200059c6200056c565b610c5a80620005eb6000396000f3fe6080604052600436106101445760003560e01c806375298734116100c0578063a9059cbb11610074578063dd62ed3e11610059578063dd62ed3e14610327578063df218bd11461036d578063f2fde38b1461038357600080fd5b8063a9059cbb146102f1578063d5abeb011461031157600080fd5b80638da5cb5b116100a55780638da5cb5b146102a157806395d89b41146102c9578063a0712d68146102de57600080fd5b806375298734146102765780637ff9b5961461028b57600080fd5b8063313ce56711610117578063608193c3116100fc578063608193c31461021657806370a082311461022b578063715018a61461026157600080fd5b8063313ce567146101e35780633ccfd60b146101ff57600080fd5b806306fdde0314610149578063095ea7b31461017457806318160ddd146101a457806323b872dd146101c3575b600080fd5b34801561015557600080fd5b5061015e6103a3565b60405161016b9190610a4a565b60405180910390f35b34801561018057600080fd5b5061019461018f366004610ab4565b610435565b604051901515815260200161016b565b3480156101b057600080fd5b506002545b60405190815260200161016b565b3480156101cf57600080fd5b506101946101de366004610ade565b61044f565b3480156101ef57600080fd5b506040516012815260200161016b565b34801561020b57600080fd5b50610214610473565b005b34801561022257600080fd5b506006546101b5565b34801561023757600080fd5b506101b5610246366004610b1a565b6001600160a01b031660009081526020819052604090205490565b34801561026d57600080fd5b506102146104b7565b34801561028257600080fd5b506101b56104cb565b34801561029757600080fd5b506101b560075481565b3480156102ad57600080fd5b506005546040516001600160a01b03909116815260200161016b565b3480156102d557600080fd5b5061015e610500565b6102146102ec366004610b3c565b61050f565b3480156102fd57600080fd5b5061019461030c366004610ab4565b610593565b34801561031d57600080fd5b506101b560085481565b34801561033357600080fd5b506101b5610342366004610b55565b6001600160a01b03918216600090815260016020908152604080832093909416825291909152205490565b34801561037957600080fd5b506101b560065481565b34801561038f57600080fd5b5061021461039e366004610b1a565b6105a1565b6060600380546103b290610b88565b80601f01602080910402602001604051908101604052809291908181526020018280546103de90610b88565b801561042b5780601f106104005761010080835404028352916020019161042b565b820191906000526020600020905b81548152906001019060200180831161040e57829003601f168201915b5050505050905090565b6000336104438185856105f5565b60019150505b92915050565b60003361045d858285610607565b61046885858561069e565b506001949350505050565b61047b610716565b6005546040516001600160a01b03909116904780156108fc02916000818181858888f193505050501580156104b4573d6000803e3d6000fd5b50565b6104bf610716565b6104c9600061075c565b565b60006104d660025490565b336000908152602081905260409020546104f1906064610bd8565b6104fb9190610bef565b905090565b6060600480546103b290610b88565b60075461051c9082610bd8565b3414610589576040517f08c379a000000000000000000000000000000000000000000000000000000000815260206004820152601c60248201527f4e6f7420656e6f7567682065746820746f206d696e7420746f6b656e0000000060448201526064015b60405180910390fd5b6104b433826107c6565b60003361044381858561069e565b6105a9610716565b6001600160a01b0381166105ec576040517f1e4fbdf700000000000000000000000000000000000000000000000000000000815260006004820152602401610580565b6104b48161075c565b6106028383836001610800565b505050565b6001600160a01b0383811660009081526001602090815260408083209386168352929052205460001981146106985781811015610689576040517ffb8f41b20000000000000000000000000000000000000000000000000000000081526001600160a01b03841660048201526024810182905260448101839052606401610580565b61069884848484036000610800565b50505050565b6001600160a01b0383166106e1576040517f96c6fd1e00000000000000000000000000000000000000000000000000000000815260006004820152602401610580565b6001600160a01b03821661070b5760405163ec442f0560e01b815260006004820152602401610580565b610602838383610907565b6005546001600160a01b031633146104c9576040517f118cdaa7000000000000000000000000000000000000000000000000000000008152336004820152602401610580565b600580546001600160a01b038381167fffffffffffffffffffffffff0000000000000000000000000000000000000000831681179093556040519116919082907f8be0079c531659141344cd1fd0a4f28419497f9722a3daafe3b4186f6b6457e090600090a35050565b6001600160a01b0382166107f05760405163ec442f0560e01b815260006004820152602401610580565b6107fc60008383610907565b5050565b6001600160a01b038416610843576040517fe602df0500000000000000000000000000000000000000000000000000000000815260006004820152602401610580565b6001600160a01b038316610886576040517f94280d6200000000000000000000000000000000000000000000000000000000815260006004820152602401610580565b6001600160a01b038085166000908152600160209081526040808320938716835292905220829055801561069857826001600160a01b0316846001600160a01b03167f8c5be1e5ebec7d5bd14f71427d1e84f3dd0314c0f7b2291e5b200ac8c7c3b925846040516108f991815260200190565b60405180910390a350505050565b6001600160a01b0383166109325780600260008282546109279190610c11565b909155506109bd9050565b6001600160a01b0383166000908152602081905260409020548181101561099e576040517fe450d38c0000000000000000000000000000000000000000000000000000000081526001600160a01b03851660048201526024810182905260448101839052606401610580565b6001600160a01b03841660009081526020819052604090209082900390555b6001600160a01b0382166109d9576002805482900390556109f8565b6001600160a01b03821660009081526020819052604090208054820190555b816001600160a01b0316836001600160a01b03167fddf252ad1be2c89b69c2b068fc378daa952ba7f163c4a11628f55a4df523b3ef83604051610a3d91815260200190565b60405180910390a3505050565b600060208083528351808285015260005b81811015610a7757858101830151858201604001528201610a5b565b506000604082860101526040601f19601f8301168501019250505092915050565b80356001600160a01b0381168114610aaf57600080fd5b919050565b60008060408385031215610ac757600080fd5b610ad083610a98565b946020939093013593505050565b600080600060608486031215610af357600080fd5b610afc84610a98565b9250610b0a60208501610a98565b9150604084013590509250925092565b600060208284031215610b2c57600080fd5b610b3582610a98565b9392505050565b600060208284031215610b4e57600080fd5b5035919050565b60008060408385031215610b6857600080fd5b610b7183610a98565b9150610b7f60208401610a98565b90509250929050565b600181811c90821680610b9c57607f821691505b602082108103610bbc57634e487b7160e01b600052602260045260246000fd5b50919050565b634e487b7160e01b600052601160045260246000fd5b808202811582820484141761044957610449610bc2565b600082610c0c57634e487b7160e01b600052601260045260246000fd5b500490565b8082018082111561044957610449610bc256fea2646970667358221220db758b73a4fa211e3c5e0740fac83681f8ac3cfc6343c15972bdd0a341eedf3964736f6c63430008140033a2646970667358221220422abec581280b60b208c27a4f8856546fd0e2f0ff22e5b5da591ace37ae1a5664736f6c63430008140033",
  "linkReferences": {},
  "deployedLinkReferences": {}
}