{
  "_format": "hh-sol-artifact-1",
  "contractName": "Stake7007",
  "sourceName": "contracts/Stake7007.sol",
  "abi": [
    {
      "inputs": [
        {
          "internalType": "address",
          "name": "tokenAddr",
          "type": "address"
        }
      ],
      "stateMutability": "nonpayable",
      "type": "constructor"
    },
    {
      "inputs": [
        {
          "internalType": "address",
          "name": "owner",
          "type": "address"
        }
      ],
      "name": "OwnableInvalidOwner",
      "type": "error"
    },
    {
      "inputs": [
        {
          "internalType": "address",
          "name": "account",
          "type": "address"
        }
      ],
      "name": "OwnableUnauthorizedAccount",
      "type": "error"
    },
    {
      "anonymous": false,
      "inputs": [
        {
          "indexed": true,
          "internalType": "address",
          "name": "previousOwner",
          "type": "address"
        },
        {
          "indexed": true,
          "internalType": "address",
          "name": "newOwner",
          "type": "address"
        }
      ],
      "name": "OwnershipTransferred",
      "type": "event"
    },
    {
      "inputs": [
        {
          "internalType": "address",
          "name": "user",
          "type": "address"
        },
        {
          "internalType": "uint256",
          "name": "amount",
          "type": "uint256"
        }
      ],
      "name": "consumeInferencePoint",
      "outputs": [],
      "stateMutability": "nonpayable",
      "type": "function"
    },
    {
      "inputs": [
        {
          "internalType": "address",
          "name": "",
          "type": "address"
        }
      ],
      "name": "consumedInferencePoint",
      "outputs": [
        {
          "internalType": "uint256",
          "name": "",
          "type": "uint256"
        }
      ],
      "stateMutability": "view",
      "type": "function"
    },
    {
      "inputs": [
        {
          "internalType": "address",
          "name": "user",
          "type": "address"
        }
      ],
      "name": "getInferencePoint",
      "outputs": [
        {
          "internalType": "uint256",
          "name": "",
          "type": "uint256"
        }
      ],
      "stateMutability": "view",
      "type": "function"
    },
    {
      "inputs": [],
      "name": "owner",
      "outputs": [
        {
          "internalType": "address",
          "name": "",
          "type": "address"
        }
      ],
      "stateMutability": "view",
      "type": "function"
    },
    {
      "inputs": [],
      "name": "renounceOwnership",
      "outputs": [],
      "stateMutability": "nonpayable",
      "type": "function"
    },
    {
      "inputs": [
        {
          "internalType": "uint256",
          "name": "amount",
          "type": "uint256"
        }
      ],
      "name": "stake",
      "outputs": [],
      "stateMutability": "nonpayable",
      "type": "function"
    },
    {
      "inputs": [
        {
          "internalType": "address",
          "name": "",
          "type": "address"
        }
      ],
      "name": "stakeStartTime",
      "outputs": [
        {
          "internalType": "uint256",
          "name": "",
          "type": "uint256"
        }
      ],
      "stateMutability": "view",
      "type": "function"
    },
    {
      "inputs": [
        {
          "internalType": "address",
          "name": "",
          "type": "address"
        }
      ],
      "name": "stakedAmount",
      "outputs": [
        {
          "internalType": "uint256",
          "name": "",
          "type": "uint256"
        }
      ],
      "stateMutability": "view",
      "type": "function"
    },
    {
      "inputs": [],
      "name": "token",
      "outputs": [
        {
          "internalType": "contract Token7007",
          "name": "",
          "type": "address"
        }
      ],
      "stateMutability": "view",
      "type": "function"
    },
    {
      "inputs": [
        {
          "internalType": "address",
          "name": "newOwner",
          "type": "address"
        }
      ],
      "name": "transferOwnership",
      "outputs": [],
      "stateMutability": "nonpayable",
      "type": "function"
    }
  ],
  "bytecode": "0x608060405234801561001057600080fd5b506040516108d33803806108d383398101604081905261002f916100d4565b338061005557604051631e4fbdf760e01b81526000600482015260240160405180910390fd5b61005e81610084565b50600180546001600160a01b0319166001600160a01b0392909216919091179055610104565b600080546001600160a01b038381166001600160a01b0319831681178455604051919092169283917f8be0079c531659141344cd1fd0a4f28419497f9722a3daafe3b4186f6b6457e09190a35050565b6000602082840312156100e657600080fd5b81516001600160a01b03811681146100fd57600080fd5b9392505050565b6107c0806101136000396000f3fe608060405234801561001057600080fd5b50600436106100be5760003560e01c8063a958cf9e11610076578063f2fde38b1161005b578063f2fde38b1461017e578063f993185514610191578063fc0c546a146101b157600080fd5b8063a958cf9e1461014b578063adf04c581461016b57600080fd5b8063715018a6116100a7578063715018a61461010b5780638da5cb5b14610113578063a694fc3a1461013857600080fd5b80634ab3a3b6146100c35780636985e6d8146100d8575b600080fd5b6100d66100d1366004610578565b6101c4565b005b6100f86100e63660046105a2565b60036020526000908152604090205481565b6040519081526020015b60405180910390f35b6100d6610296565b6000546001600160a01b03165b6040516001600160a01b039091168152602001610102565b6100d66101463660046105c4565b6102aa565b6100f86101593660046105a2565b60046020526000908152604090205481565b6100f86101793660046105a2565b610378565b6100d661018c3660046105a2565b610457565b6100f861019f3660046105a2565b60026020526000908152604090205481565b600154610120906001600160a01b031681565b6101cc6104ae565b6001600160a01b038216600090815260046020526040812080548392906101f49084906105f3565b90915550506001600160a01b03821660009081526004602052604081205461021b84610378565b6102259190610606565b1015610292576040517f08c379a000000000000000000000000000000000000000000000000000000000815260206004820152601a60248201527f4e6f7420656e6f75676820696e666572656e636520706f696e7400000000000060448201526064015b60405180910390fd5b5050565b61029e6104ae565b6102a860006104f4565b565b6001546040517f23b872dd000000000000000000000000000000000000000000000000000000008152336004820152306024820152604481018390526001600160a01b03909116906323b872dd906064016020604051808303816000875af115801561031a573d6000803e3d6000fd5b505050506040513d601f19601f8201168201806040525081019061033e9190610619565b50336000908152600260205260408120805483929061035e9084906105f3565b909155505033600090815260036020526040902042905550565b600154604080517f313ce56700000000000000000000000000000000000000000000000000000000815290516000926001600160a01b03169163313ce5679160048083019260209291908290030181865afa1580156103db573d6000803e3d6000fd5b505050506040513d601f19601f820116820180604052508101906103ff919061063b565b61040a90600a610742565b336000908152600360205260409020546104249042610606565b6001600160a01b0384166000908152600260205260409020546104479190610751565b6104519190610768565b92915050565b61045f6104ae565b6001600160a01b0381166104a2576040517f1e4fbdf700000000000000000000000000000000000000000000000000000000815260006004820152602401610289565b6104ab816104f4565b50565b6000546001600160a01b031633146102a8576040517f118cdaa7000000000000000000000000000000000000000000000000000000008152336004820152602401610289565b600080546001600160a01b038381167fffffffffffffffffffffffff0000000000000000000000000000000000000000831681178455604051919092169283917f8be0079c531659141344cd1fd0a4f28419497f9722a3daafe3b4186f6b6457e09190a35050565b80356001600160a01b038116811461057357600080fd5b919050565b6000806040838503121561058b57600080fd5b6105948361055c565b946020939093013593505050565b6000602082840312156105b457600080fd5b6105bd8261055c565b9392505050565b6000602082840312156105d657600080fd5b5035919050565b634e487b7160e01b600052601160045260246000fd5b80820180821115610451576104516105dd565b81810381811115610451576104516105dd565b60006020828403121561062b57600080fd5b815180151581146105bd57600080fd5b60006020828403121561064d57600080fd5b815160ff811681146105bd57600080fd5b600181815b8085111561069957816000190482111561067f5761067f6105dd565b8085161561068c57918102915b93841c9390800290610663565b509250929050565b6000826106b057506001610451565b816106bd57506000610451565b81600181146106d357600281146106dd576106f9565b6001915050610451565b60ff8411156106ee576106ee6105dd565b50506001821b610451565b5060208310610133831016604e8410600b841016171561071c575081810a610451565b610726838361065e565b806000190482111561073a5761073a6105dd565b029392505050565b60006105bd60ff8416836106a1565b8082028115828204841417610451576104516105dd565b60008261078557634e487b7160e01b600052601260045260246000fd5b50049056fea2646970667358221220b646b7f8f7f0da80460ec5dd4ec60a3d02178ccbf59db5bbbbd9899a03c6cb6864736f6c63430008140033",
  "linkReferences": {},
  "deployedLinkReferences": {}
}